{
  "contractName": "PeetStakingContract",
  "abi": [
    {
      "inputs": [
        {
          "internalType": "address",
          "name": "manager",
          "type": "address"
        }
      ],
      "stateMutability": "nonpayable",
      "type": "constructor"
    },
    {
      "anonymous": false,
      "inputs": [
        {
          "indexed": false,
          "internalType": "bytes32",
          "name": "pool_name",
          "type": "bytes32"
        },
        {
          "indexed": false,
          "internalType": "bool",
          "name": "state",
          "type": "bool"
        },
        {
          "indexed": false,
          "internalType": "uint256",
          "name": "roi",
          "type": "uint256"
        },
        {
          "indexed": false,
          "internalType": "uint256",
          "name": "participation",
          "type": "uint256"
        },
        {
          "indexed": false,
          "internalType": "uint256",
          "name": "startDate",
          "type": "uint256"
        },
        {
          "indexed": false,
          "internalType": "uint256",
          "name": "endDate",
          "type": "uint256"
        }
      ],
      "name": "LogNewPublishedPool",
      "type": "event"
    },
    {
      "anonymous": false,
      "inputs": [
        {
          "indexed": false,
          "internalType": "bytes32",
          "name": "pool_name",
          "type": "bytes32"
        },
        {
          "indexed": false,
          "internalType": "bool",
          "name": "state",
          "type": "bool"
        },
        {
          "indexed": false,
          "internalType": "uint256",
          "name": "roi",
          "type": "uint256"
        },
        {
          "indexed": false,
          "internalType": "uint256",
          "name": "participation",
          "type": "uint256"
        },
        {
          "indexed": false,
          "internalType": "uint256",
          "name": "startDate",
          "type": "uint256"
        },
        {
          "indexed": false,
          "internalType": "uint256",
          "name": "endDate",
          "type": "uint256"
        }
      ],
      "name": "LogUpdatedPublishedPool",
      "type": "event"
    },
    {
      "inputs": [
        {
          "internalType": "uint256",
          "name": "",
          "type": "uint256"
        }
      ],
      "name": "activePoolsIndices",
      "outputs": [
        {
          "internalType": "bytes32",
          "name": "",
          "type": "bytes32"
        }
      ],
      "stateMutability": "view",
      "type": "function",
      "constant": true
    },
    {
      "inputs": [
        {
          "internalType": "uint256",
          "name": "",
          "type": "uint256"
        }
      ],
      "name": "allPoolsIndices",
      "outputs": [
        {
          "internalType": "bytes32",
          "name": "",
          "type": "bytes32"
        }
      ],
      "stateMutability": "view",
      "type": "function",
      "constant": true
    },
    {
      "inputs": [
        {
          "internalType": "bytes32",
          "name": "name",
          "type": "bytes32"
        },
        {
          "internalType": "address",
          "name": "in_asset",
          "type": "address"
        },
        {
          "internalType": "address",
          "name": "out_asset",
          "type": "address"
        },
        {
          "internalType": "uint256",
          "name": "start_date",
          "type": "uint256"
        },
        {
          "internalType": "uint256",
          "name": "end_date",
          "type": "uint256"
        },
        {
          "internalType": "bool",
          "name": "state_pool",
          "type": "bool"
        },
        {
          "internalType": "bool",
          "name": "auto_renew",
          "type": "bool"
        },
        {
          "internalType": "uint256",
          "name": "roi",
          "type": "uint256"
        },
        {
          "internalType": "uint256",
          "name": "hodl_mode_bonus",
          "type": "uint256"
        },
        {
          "internalType": "uint256",
          "name": "hodl_mode_period",
          "type": "uint256"
        },
        {
          "internalType": "uint256",
          "name": "max_reward",
          "type": "uint256"
        },
        {
          "internalType": "uint256",
          "name": "max_wallet",
          "type": "uint256"
        },
        {
          "internalType": "uint256",
          "name": "max_total",
          "type": "uint256"
        }
      ],
      "name": "publishPool",
      "outputs": [
        {
          "internalType": "bytes32",
          "name": "",
          "type": "bytes32"
        }
      ],
      "stateMutability": "nonpayable",
      "type": "function"
    },
    {
      "inputs": [],
      "name": "fetchLivePools",
      "outputs": [
        {
          "internalType": "bytes32[]",
          "name": "",
          "type": "bytes32[]"
        },
        {
          "internalType": "address[]",
          "name": "",
          "type": "address[]"
        },
        {
          "internalType": "address[]",
          "name": "",
          "type": "address[]"
        },
        {
          "internalType": "uint256[]",
          "name": "",
          "type": "uint256[]"
        },
        {
          "internalType": "uint256[]",
          "name": "",
          "type": "uint256[]"
        }
      ],
      "stateMutability": "view",
      "type": "function",
      "constant": true
    }
  ],
  "bytecode": "0x608060405234801561001057600080fd5b50604051610d75380380610d758339818101604052602081101561003357600080fd5b8101908080519060200190929190505050806000806101000a81548173ffffffffffffffffffffffffffffffffffffffff021916908373ffffffffffffffffffffffffffffffffffffffff16021790555050610ce1806100946000396000f3fe608060405234801561001057600080fd5b506004361061004c5760003560e01c806318b50296146100515780636b38073b1461009357806377e843091461017e578063b04cdb27146102fd575b600080fd5b61007d6004803603602081101561006757600080fd5b810190808035906020019092919050505061033f565b6040518082815260200191505060405180910390f35b61016860048036036101a08110156100aa57600080fd5b8101908080359060200190929190803573ffffffffffffffffffffffffffffffffffffffff169060200190929190803573ffffffffffffffffffffffffffffffffffffffff1690602001909291908035906020019092919080359060200190929190803515159060200190929190803515159060200190929190803590602001909291908035906020019092919080359060200190929190803590602001909291908035906020019092919080359060200190929190505050610360565b6040518082815260200191505060405180910390f35b610186610632565b60405180806020018060200180602001806020018060200186810386528b818151815260200191508051906020019060200280838360005b838110156101d95780820151818401526020810190506101be565b5050505090500186810385528a818151815260200191508051906020019060200280838360005b8381101561021b578082015181840152602081019050610200565b50505050905001868103845289818151815260200191508051906020019060200280838360005b8381101561025d578082015181840152602081019050610242565b50505050905001868103835288818151815260200191508051906020019060200280838360005b8381101561029f578082015181840152602081019050610284565b50505050905001868103825287818151815260200191508051906020019060200280838360005b838110156102e15780820151818401526020810190506102c6565b505050509050019a505050505050505050505060405180910390f35b6103296004803603602081101561031357600080fd5b81019080803590602001909291905050506109fc565b6040518082815260200191505060405180910390f35b6002818154811061034c57fe5b906000526020600020016000915090505481565b6000808e61036d8d610a1d565b6103768d610a1d565b604051602001808481526020018060200180602001838103835285818151815260200191508051906020019080838360005b838110156103c35780820151818401526020810190506103a8565b50505050905090810190601f1680156103f05780820380516001836020036101000a031916815260200191505b50838103825284818151815260200191508051906020019080838360005b8381101561042957808201518184015260208101905061040e565b50505050905090810190601f1680156104565780820380516001836020036101000a031916815260200191505b509550505050505060405160208183030381529060405280519060200120905060006001600083815260200190815260200160002090508f81600001819055508e8160010160006101000a81548173ffffffffffffffffffffffffffffffffffffffff021916908373ffffffffffffffffffffffffffffffffffffffff1602179055508d8160020160006101000a81548173ffffffffffffffffffffffffffffffffffffffff021916908373ffffffffffffffffffffffffffffffffffffffff1602179055508c81600301819055508b81600401819055508a8160050160006101000a81548160ff021916908315150217905550898160050160016101000a81548160ff02191690831515021790555061056e610c69565b89816000018181525050888160200181815250508781604001818152505080826006016000820151816000015560208201518160010155604082015181600201559050506105ba610c8a565b878160000181815250508681602001818152505085816040018181525050808360090160008201518160000155602082015181600101556040820151816002015590505061061a8460016000878152602001908152602001600020610b61565b839450505050509d9c50505050505050505050505050565b60608060608060608060038054905067ffffffffffffffff8111801561065757600080fd5b506040519080825280602002602001820160405280156106865781602001602082028036833780820191505090505b509050606060038054905067ffffffffffffffff811180156106a757600080fd5b506040519080825280602002602001820160405280156106d65781602001602082028036833780820191505090505b509050606060038054905067ffffffffffffffff811180156106f757600080fd5b506040519080825280602002602001820160405280156107265781602001602082028036833780820191505090505b509050606060038054905067ffffffffffffffff8111801561074757600080fd5b506040519080825280602002602001820160405280156107765781602001602082028036833780820191505090505b509050606060038054905067ffffffffffffffff8111801561079757600080fd5b506040519080825280602002602001820160405280156107c65781602001602082028036833780820191505090505b50905060005b6003805490508110156109e05760016000600383815481106107ea57fe5b906000526020600020015481526020019081526020016000206000015486828151811061081357fe5b602002602001018181525050600160006003838154811061083057fe5b9060005260206000200154815260200190815260200160002060010160009054906101000a900473ffffffffffffffffffffffffffffffffffffffff1685828151811061087957fe5b602002602001019073ffffffffffffffffffffffffffffffffffffffff16908173ffffffffffffffffffffffffffffffffffffffff168152505060016000600383815481106108c457fe5b9060005260206000200154815260200190815260200160002060020160009054906101000a900473ffffffffffffffffffffffffffffffffffffffff1684828151811061090d57fe5b602002602001019073ffffffffffffffffffffffffffffffffffffffff16908173ffffffffffffffffffffffffffffffffffffffff1681525050600160006003838154811061095857fe5b906000526020600020015481526020019081526020016000206003015483828151811061098157fe5b602002602001018181525050600160006003838154811061099e57fe5b90600052602060002001548152602001908152602001600020600401548282815181106109c757fe5b60200260200101818152505080806001019150506107cc565b5084848484849950995099509950995050505050509091929394565b60038181548110610a0957fe5b906000526020600020016000915090505481565b60606000821415610a65576040518060400160405280600181526020017f30000000000000000000000000000000000000000000000000000000000000008152509050610b5c565b600082905060005b60008214610a8f578080600101915050600a8281610a8757fe5b049150610a6d565b60608167ffffffffffffffff81118015610aa857600080fd5b506040519080825280601f01601f191660200182016040528015610adb5781602001600182028036833780820191505090505b50905060006001830390505b60008614610b5457600a8681610af957fe5b0660300160f81b82828060019003935081518110610b1357fe5b60200101907effffffffffffffffffffffffffffffffffffffffffffffffffffffffffffff1916908160001a905350600a8681610b4c57fe5b049550610ae7565b819450505050505b919050565b60028290806001815401808255809150506001900390600052602060002001600090919091909150558060050160009054906101000a900460ff1615610bac57610bab8282610bb0565b5b5050565b60038290806001815401808255809150506001900390600052602060002001600090919091909150557ff78d7224cb1704679d92cfa09ba676135de574354c92da53b04d68c69f2ea35d81600001548260050160009054906101000a900460ff168360060160000154846009016002015485600301548660040154604051808781526020018615158152602001858152602001848152602001838152602001828152602001965050505050505060405180910390a15050565b60405180606001604052806000815260200160008152602001600081525090565b6040518060600160405280600081526020016000815260200160008152509056fea2646970667358221220d3bd6b0cd44f2c9bc0927139926ad74415349d11e9cdeb8bc803a52b42c5cf0d64736f6c63430007000033",
  "immutableReferences": {},
  "source": "// SPDX-License-Identifier: MIT\r\n\r\npragma solidity ^0.7.0;\r\n\r\nimport \"./interfaces/IERC20.sol\";\r\nimport \"./maths/SafeMath.sol\";\r\nimport \"./structures/PoolStruct.sol\";\r\nimport \"./libs/string.sol\";\r\n\r\ncontract PeetStakingContract {\r\n    using SafeMath for uint256;\r\n    using strings for *;\r\n\r\n    address private _poolManager;\r\n    \r\n    mapping(bytes32 => PoolStructure) private _pools;\r\n\r\n    bytes32[] public allPoolsIndices;\r\n    bytes32[] public activePoolsIndices;\r\n\r\n    constructor(address manager) {\r\n        _poolManager = manager;\r\n    }\r\n\r\n    event LogNewPublishedPool(\r\n        bytes32 pool_name,\r\n        bool state,\r\n        uint256 roi,\r\n        uint256 participation,\r\n        uint256 startDate,\r\n        uint256 endDate\r\n    );\r\n\r\n   event LogUpdatedPublishedPool(\r\n        bytes32 pool_name,\r\n        bool state,\r\n        uint256 roi,\r\n        uint256 participation,\r\n        uint256 startDate,\r\n        uint256 endDate\r\n    );\r\n\r\n    function removeActivePoolIndexation(uint index) private {\r\n        if (index >= activePoolsIndices.length) return;\r\n        PoolStructure storage pool = _pools[activePoolsIndices[index]];\r\n\r\n        for (uint i = index; i < activePoolsIndices.length-1; i++){\r\n            activePoolsIndices[i] = activePoolsIndices[i+1];\r\n        }\r\n    \r\n        // emit disabled pool event\r\n        emit LogUpdatedPublishedPool(\r\n            pool.pool_name,\r\n            pool.pool_active,\r\n            pool.rewards_pool.roi_percent,\r\n            pool.funds_pool.max_total_participation,\r\n            pool.start_date,\r\n            pool.end_date\r\n        );\r\n    }\r\n\r\n    function enableActivePoolIndexation(bytes32 indice, PoolStructure storage pool) private {\r\n        activePoolsIndices.push(indice);\r\n\r\n        // emit enabled pool event\r\n        emit LogNewPublishedPool(\r\n            pool.pool_name,\r\n            pool.pool_active,\r\n            pool.rewards_pool.roi_percent,\r\n            pool.funds_pool.max_total_participation,\r\n            pool.start_date,\r\n            pool.end_date\r\n        );\r\n    }\r\n\r\n    function addPoolToIndexation(bytes32 indice, PoolStructure storage pool) private {\r\n        // for all pool history\r\n        allPoolsIndices.push(indice);\r\n\r\n        // save the indice key in case the pool is already active at publishment\r\n        if (pool.pool_active) {\r\n            enableActivePoolIndexation(indice, pool);\r\n        }\r\n    }\r\n\r\n    function publishPool(bytes32 name, address in_asset,\r\n        address out_asset, uint256 start_date, uint256 end_date,\r\n        bool state_pool, bool auto_renew, uint256 roi, uint256 hodl_mode_bonus,\r\n        uint hodl_mode_period, uint256 max_reward, uint max_wallet, uint max_total) public returns(bytes32) {\r\n        \r\n        bytes32 pool_indice = keccak256(abi.encode(name,\r\n          strings.uint2str(start_date), strings.uint2str(end_date)));\r\n\r\n        // Pool base structure\r\n        PoolStructure storage new_pool = _pools[pool_indice];\r\n        new_pool.pool_name = name;\r\n        new_pool.input_asset = in_asset;\r\n        new_pool.output_asset = out_asset;\r\n        new_pool.start_date = start_date;\r\n        new_pool.end_date = end_date;\r\n        new_pool.pool_active = state_pool;\r\n        new_pool.pool_auto_renew = auto_renew;\r\n        \r\n        // Pool Rewards\r\n        PoolRewards memory rewards;\r\n        rewards.roi_percent = roi;\r\n        rewards.hodl_mode_bonus = hodl_mode_bonus;\r\n        rewards.hodl_mode_period = hodl_mode_period;\r\n        new_pool.rewards_pool = rewards;\r\n        //\r\n\r\n        // Pool Funds\r\n        PoolFunds memory funds;\r\n        funds.max_amount_reward = max_reward;\r\n        funds.max_wallet_participation = max_wallet;\r\n        funds.max_total_participation = max_total;\r\n        new_pool.funds_pool = funds;\r\n        //\r\n\r\n        addPoolToIndexation(pool_indice, _pools[pool_indice]);\r\n        return pool_indice;\r\n    }\r\n\r\n    function fetchLivePools() public view returns(bytes32 [] memory, address [] memory,\r\n    address [] memory, uint256 [] memory, uint256 [] memory) {\r\n        bytes32 [] memory names = new bytes32[](activePoolsIndices.length);\r\n        address [] memory input_assets = new address[](activePoolsIndices.length);\r\n        address [] memory output_assets = new address[](activePoolsIndices.length);\r\n        uint256 [] memory starts = new uint256[](activePoolsIndices.length);\r\n        uint256 [] memory ends = new uint256[](activePoolsIndices.length);\r\n\r\n        for (uint i = 0; i < activePoolsIndices.length; i++) {\r\n            names[i] =  _pools[activePoolsIndices[i]].pool_name;\r\n            input_assets[i] = _pools[activePoolsIndices[i]].input_asset;\r\n            output_assets[i] = _pools[activePoolsIndices[i]].output_asset;\r\n            starts[i] = _pools[activePoolsIndices[i]].start_date;\r\n            ends[i] = _pools[activePoolsIndices[i]].end_date;\r\n        }\r\n        return (names, input_assets,\r\n         output_assets, starts, ends);\r\n    }\r\n    \r\n}",
  "sourcePath": "/mnt/f/eth/pte-staking/contracts/PeetStakingContract.sol",
  "compiler": {
    "name": "solc",
    "version": "0.7.0+commit.9e61f92b.Emscripten.clang"
  },
  "schemaVersion": "3.2.5",
  "updatedAt": "2020-12-09T22:04:16.632Z",
  "networkType": "ethereum",
  "devdoc": {
    "kind": "dev",
    "methods": {},
    "version": 1
  },
  "userdoc": {
    "kind": "user",
    "methods": {},
    "version": 1
  }
}