{
  "contractName": "PeetStakingContract",
  "abi": [
    {
      "inputs": [
        {
          "internalType": "address",
          "name": "manager",
          "type": "address"
        }
      ],
      "stateMutability": "nonpayable",
      "type": "constructor"
    },
    {
      "anonymous": false,
      "inputs": [
        {
          "indexed": false,
          "internalType": "bytes32",
          "name": "pool_indice",
          "type": "bytes32"
        },
        {
          "indexed": false,
          "internalType": "bytes32",
          "name": "pool_name",
          "type": "bytes32"
        },
        {
          "indexed": false,
          "internalType": "bool",
          "name": "state",
          "type": "bool"
        },
        {
          "indexed": false,
          "internalType": "uint256",
          "name": "amount_reward",
          "type": "uint256"
        },
        {
          "indexed": false,
          "internalType": "uint256",
          "name": "participation",
          "type": "uint256"
        },
        {
          "indexed": false,
          "internalType": "uint256",
          "name": "startDate",
          "type": "uint256"
        },
        {
          "indexed": false,
          "internalType": "uint256",
          "name": "endDate",
          "type": "uint256"
        }
      ],
      "name": "LogNewPublishedPool",
      "type": "event"
    },
    {
      "anonymous": false,
      "inputs": [
        {
          "indexed": false,
          "internalType": "bytes32",
          "name": "pool_indice",
          "type": "bytes32"
        },
        {
          "indexed": false,
          "internalType": "bytes32",
          "name": "pool_name",
          "type": "bytes32"
        },
        {
          "indexed": false,
          "internalType": "bool",
          "name": "state",
          "type": "bool"
        },
        {
          "indexed": false,
          "internalType": "uint256",
          "name": "amount_reward",
          "type": "uint256"
        },
        {
          "indexed": false,
          "internalType": "uint256",
          "name": "participation",
          "type": "uint256"
        },
        {
          "indexed": false,
          "internalType": "uint256",
          "name": "startDate",
          "type": "uint256"
        },
        {
          "indexed": false,
          "internalType": "uint256",
          "name": "endDate",
          "type": "uint256"
        }
      ],
      "name": "LogUpdatedPublishedPool",
      "type": "event"
    },
    {
      "anonymous": false,
      "inputs": [
        {
          "indexed": false,
          "internalType": "bytes32",
          "name": "pool_indice",
          "type": "bytes32"
        },
        {
          "indexed": false,
          "internalType": "uint256",
          "name": "amount_reward",
          "type": "uint256"
        },
        {
          "indexed": false,
          "internalType": "address",
          "name": "receiver",
          "type": "address"
        },
        {
          "indexed": false,
          "internalType": "address",
          "name": "output_asset",
          "type": "address"
        }
      ],
      "name": "RewardReceivedFromPool",
      "type": "event"
    },
    {
      "inputs": [
        {
          "internalType": "uint256",
          "name": "",
          "type": "uint256"
        }
      ],
      "name": "activePoolsIndices",
      "outputs": [
        {
          "internalType": "bytes32",
          "name": "",
          "type": "bytes32"
        }
      ],
      "stateMutability": "view",
      "type": "function",
      "constant": true
    },
    {
      "inputs": [
        {
          "internalType": "uint256",
          "name": "",
          "type": "uint256"
        }
      ],
      "name": "allPoolsIndices",
      "outputs": [
        {
          "internalType": "bytes32",
          "name": "",
          "type": "bytes32"
        }
      ],
      "stateMutability": "view",
      "type": "function",
      "constant": true
    },
    {
      "inputs": [
        {
          "internalType": "uint256",
          "name": "",
          "type": "uint256"
        }
      ],
      "name": "endedPoolsIndices",
      "outputs": [
        {
          "internalType": "bytes32",
          "name": "",
          "type": "bytes32"
        }
      ],
      "stateMutability": "view",
      "type": "function",
      "constant": true
    },
    {
      "inputs": [
        {
          "internalType": "bytes32",
          "name": "indice",
          "type": "bytes32"
        },
        {
          "internalType": "address",
          "name": "addr",
          "type": "address"
        }
      ],
      "name": "getTotalWalletPoolInputAmount",
      "outputs": [
        {
          "internalType": "uint256",
          "name": "",
          "type": "uint256"
        }
      ],
      "stateMutability": "view",
      "type": "function",
      "constant": true
    },
    {
      "inputs": [
        {
          "internalType": "bytes32",
          "name": "indice",
          "type": "bytes32"
        },
        {
          "internalType": "bool",
          "name": "state",
          "type": "bool"
        }
      ],
      "name": "updatePoolState",
      "outputs": [],
      "stateMutability": "nonpayable",
      "type": "function"
    },
    {
      "inputs": [
        {
          "internalType": "bytes32",
          "name": "indice",
          "type": "bytes32"
        },
        {
          "internalType": "uint256",
          "name": "amount",
          "type": "uint256"
        }
      ],
      "name": "depositInPool",
      "outputs": [],
      "stateMutability": "nonpayable",
      "type": "function"
    },
    {
      "inputs": [
        {
          "internalType": "bytes32",
          "name": "indice",
          "type": "bytes32"
        }
      ],
      "name": "leftRewardsInPool",
      "outputs": [
        {
          "internalType": "uint256",
          "name": "",
          "type": "uint256"
        }
      ],
      "stateMutability": "view",
      "type": "function",
      "constant": true
    },
    {
      "inputs": [
        {
          "internalType": "bytes32",
          "name": "indice",
          "type": "bytes32"
        }
      ],
      "name": "withdrawPoolRewardsUnconsumed",
      "outputs": [],
      "stateMutability": "nonpayable",
      "type": "function"
    },
    {
      "inputs": [
        {
          "internalType": "bytes32",
          "name": "indice",
          "type": "bytes32"
        }
      ],
      "name": "withdrawFromPool",
      "outputs": [
        {
          "internalType": "uint256",
          "name": "",
          "type": "uint256"
        }
      ],
      "stateMutability": "nonpayable",
      "type": "function"
    },
    {
      "inputs": [
        {
          "internalType": "bytes32",
          "name": "name",
          "type": "bytes32"
        },
        {
          "internalType": "address",
          "name": "in_asset",
          "type": "address"
        },
        {
          "internalType": "address",
          "name": "out_asset",
          "type": "address"
        },
        {
          "internalType": "uint256",
          "name": "start_date",
          "type": "uint256"
        },
        {
          "internalType": "uint256",
          "name": "end_date",
          "type": "uint256"
        },
        {
          "internalType": "bool",
          "name": "state_pool",
          "type": "bool"
        },
        {
          "internalType": "uint256",
          "name": "amount_reward",
          "type": "uint256"
        },
        {
          "internalType": "uint256",
          "name": "max_wallet",
          "type": "uint256"
        },
        {
          "internalType": "uint256",
          "name": "max_total",
          "type": "uint256"
        }
      ],
      "name": "publishPool",
      "outputs": [
        {
          "internalType": "bytes32",
          "name": "",
          "type": "bytes32"
        }
      ],
      "stateMutability": "nonpayable",
      "type": "function"
    },
    {
      "inputs": [],
      "name": "fetchLivePoolsPlus",
      "outputs": [
        {
          "internalType": "uint256[]",
          "name": "",
          "type": "uint256[]"
        },
        {
          "internalType": "uint256[]",
          "name": "",
          "type": "uint256[]"
        },
        {
          "internalType": "uint256[]",
          "name": "",
          "type": "uint256[]"
        }
      ],
      "stateMutability": "view",
      "type": "function",
      "constant": true
    },
    {
      "inputs": [],
      "name": "fetchLivePools",
      "outputs": [
        {
          "internalType": "bytes32[]",
          "name": "",
          "type": "bytes32[]"
        },
        {
          "internalType": "bytes32[]",
          "name": "",
          "type": "bytes32[]"
        },
        {
          "internalType": "address[]",
          "name": "",
          "type": "address[]"
        },
        {
          "internalType": "address[]",
          "name": "",
          "type": "address[]"
        },
        {
          "internalType": "uint256[]",
          "name": "",
          "type": "uint256[]"
        },
        {
          "internalType": "uint256[]",
          "name": "",
          "type": "uint256[]"
        }
      ],
      "stateMutability": "view",
      "type": "function",
      "constant": true
    },
    {
      "inputs": [],
      "name": "fetchAllPools",
      "outputs": [
        {
          "internalType": "bytes32[]",
          "name": "",
          "type": "bytes32[]"
        },
        {
          "internalType": "bytes32[]",
          "name": "",
          "type": "bytes32[]"
        },
        {
          "internalType": "address[]",
          "name": "",
          "type": "address[]"
        },
        {
          "internalType": "address[]",
          "name": "",
          "type": "address[]"
        },
        {
          "internalType": "uint256[]",
          "name": "",
          "type": "uint256[]"
        },
        {
          "internalType": "uint256[]",
          "name": "",
          "type": "uint256[]"
        }
      ],
      "stateMutability": "view",
      "type": "function",
      "constant": true
    },
    {
      "inputs": [
        {
          "internalType": "bytes32",
          "name": "indice",
          "type": "bytes32"
        }
      ],
      "name": "fetchPool",
      "outputs": [
        {
          "internalType": "bytes32",
          "name": "",
          "type": "bytes32"
        },
        {
          "internalType": "address",
          "name": "",
          "type": "address"
        },
        {
          "internalType": "address",
          "name": "",
          "type": "address"
        },
        {
          "internalType": "uint256",
          "name": "",
          "type": "uint256"
        },
        {
          "internalType": "uint256",
          "name": "",
          "type": "uint256"
        },
        {
          "internalType": "uint256",
          "name": "",
          "type": "uint256"
        },
        {
          "internalType": "uint256",
          "name": "",
          "type": "uint256"
        },
        {
          "internalType": "uint256",
          "name": "",
          "type": "uint256"
        },
        {
          "internalType": "uint256",
          "name": "",
          "type": "uint256"
        }
      ],
      "stateMutability": "view",
      "type": "function",
      "constant": true
    },
    {
      "inputs": [],
      "name": "fetchEndedPoolsPlus",
      "outputs": [
        {
          "internalType": "uint256[]",
          "name": "",
          "type": "uint256[]"
        },
        {
          "internalType": "uint256[]",
          "name": "",
          "type": "uint256[]"
        },
        {
          "internalType": "uint256[]",
          "name": "",
          "type": "uint256[]"
        }
      ],
      "stateMutability": "view",
      "type": "function",
      "constant": true
    },
    {
      "inputs": [],
      "name": "fetchEndedPools",
      "outputs": [
        {
          "internalType": "bytes32[]",
          "name": "",
          "type": "bytes32[]"
        },
        {
          "internalType": "bytes32[]",
          "name": "",
          "type": "bytes32[]"
        },
        {
          "internalType": "address[]",
          "name": "",
          "type": "address[]"
        },
        {
          "internalType": "address[]",
          "name": "",
          "type": "address[]"
        },
        {
          "internalType": "uint256[]",
          "name": "",
          "type": "uint256[]"
        },
        {
          "internalType": "uint256[]",
          "name": "",
          "type": "uint256[]"
        }
      ],
      "stateMutability": "view",
      "type": "function",
      "constant": true
    }
  ],
  "bytecode": "0x608060405234801561001057600080fd5b50604051613f99380380613f998339818101604052602081101561003357600080fd5b8101908080519060200190929190505050806000806101000a81548173ffffffffffffffffffffffffffffffffffffffff021916908373ffffffffffffffffffffffffffffffffffffffff16021790555050613f05806100946000396000f3fe608060405234801561001057600080fd5b50600436106101005760003560e01c806382d98bd911610097578063b6fdc1c811610066578063b6fdc1c8146109da578063bcb8858b14610ac9578063c05e15ee14610b03578063e0b659c614610b4557610100565b806382d98bd9146106e257806399ac05b0146107a3578063b04cdb271461096a578063b16cffc3146109ac57610100565b806329776249116100d357806329776249146102d057806338fa25651461031257806377e84309146103545780637f2782e01461051b57610100565b80630bdd712a1461010557806318b502961461013d5780631d26d1ac1461017f57806324e644e51461026e575b600080fd5b61013b6004803603604081101561011b57600080fd5b810190808035906020019092919080359060200190929190505050610beb565b005b6101696004803603602081101561015357600080fd5b81019080803590602001909291905050506110da565b6040518082815260200191505060405180910390f35b6101876110fb565b60405180806020018060200180602001848103845287818151815260200191508051906020019060200280838360005b838110156101d25780820151818401526020810190506101b7565b50505050905001848103835286818151815260200191508051906020019060200280838360005b838110156102145780820151818401526020810190506101f9565b50505050905001848103825285818151815260200191508051906020019060200280838360005b8381101561025657808201518184015260208101905061023b565b50505050905001965050505050505060405180910390f35b6102ba6004803603604081101561028457600080fd5b8101908080359060200190929190803573ffffffffffffffffffffffffffffffffffffffff1690602001909291905050506112f6565b6040518082815260200191505060405180910390f35b6102fc600480360360208110156102e657600080fd5b810190808035906020019092919050505061139e565b6040518082815260200191505060405180910390f35b61033e6004803603602081101561032857600080fd5b8101908080359060200190929190505050611829565b6040518082815260200191505060405180910390f35b61035c61184a565b6040518080602001806020018060200180602001806020018060200187810387528d818151815260200191508051906020019060200280838360005b838110156103b3578082015181840152602081019050610398565b5050505090500187810386528c818151815260200191508051906020019060200280838360005b838110156103f55780820151818401526020810190506103da565b5050505090500187810385528b818151815260200191508051906020019060200280838360005b8381101561043757808201518184015260208101905061041c565b5050505090500187810384528a818151815260200191508051906020019060200280838360005b8381101561047957808201518184015260208101905061045e565b50505050905001878103835289818151815260200191508051906020019060200280838360005b838110156104bb5780820151818401526020810190506104a0565b50505050905001878103825288818151815260200191508051906020019060200280838360005b838110156104fd5780820151818401526020810190506104e2565b505050509050019c5050505050505050505050505060405180910390f35b610523611cb1565b6040518080602001806020018060200180602001806020018060200187810387528d818151815260200191508051906020019060200280838360005b8381101561057a57808201518184015260208101905061055f565b5050505090500187810386528c818151815260200191508051906020019060200280838360005b838110156105bc5780820151818401526020810190506105a1565b5050505090500187810385528b818151815260200191508051906020019060200280838360005b838110156105fe5780820151818401526020810190506105e3565b5050505090500187810384528a818151815260200191508051906020019060200280838360005b83811015610640578082015181840152602081019050610625565b50505050905001878103835289818151815260200191508051906020019060200280838360005b83811015610682578082015181840152602081019050610667565b50505050905001878103825288818151815260200191508051906020019060200280838360005b838110156106c45780820151818401526020810190506106a9565b505050509050019c5050505050505050505050505060405180910390f35b61078d60048036036101208110156106f957600080fd5b8101908080359060200190929190803573ffffffffffffffffffffffffffffffffffffffff169060200190929190803573ffffffffffffffffffffffffffffffffffffffff1690602001909291908035906020019092919080359060200190929190803515159060200190929190803590602001909291908035906020019092919080359060200190929190505050612118565b6040518082815260200191505060405180910390f35b6107ab612551565b6040518080602001806020018060200180602001806020018060200187810387528d818151815260200191508051906020019060200280838360005b838110156108025780820151818401526020810190506107e7565b5050505090500187810386528c818151815260200191508051906020019060200280838360005b83811015610844578082015181840152602081019050610829565b5050505090500187810385528b818151815260200191508051906020019060200280838360005b8381101561088657808201518184015260208101905061086b565b5050505090500187810384528a818151815260200191508051906020019060200280838360005b838110156108c85780820151818401526020810190506108ad565b50505050905001878103835289818151815260200191508051906020019060200280838360005b8381101561090a5780820151818401526020810190506108ef565b50505050905001878103825288818151815260200191508051906020019060200280838360005b8381101561094c578082015181840152602081019050610931565b505050509050019c5050505050505050505050505060405180910390f35b6109966004803603602081101561098057600080fd5b81019080803590602001909291905050506129b8565b6040518082815260200191505060405180910390f35b6109d8600480360360208110156109c257600080fd5b81019080803590602001909291905050506129d9565b005b6109e2612db9565b60405180806020018060200180602001848103845287818151815260200191508051906020019060200280838360005b83811015610a2d578082015181840152602081019050610a12565b50505050905001848103835286818151815260200191508051906020019060200280838360005b83811015610a6f578082015181840152602081019050610a54565b50505050905001848103825285818151815260200191508051906020019060200280838360005b83811015610ab1578082015181840152602081019050610a96565b50505050905001965050505050505060405180910390f35b610b0160048036036040811015610adf57600080fd5b8101908080359060200190929190803515159060200190929190505050612fb4565b005b610b2f60048036036020811015610b1957600080fd5b81019080803590602001909291905050506130ec565b6040518082815260200191505060405180910390f35b610b7160048036036020811015610b5b57600080fd5b8101908080359060200190929190505050613114565b604051808a81526020018973ffffffffffffffffffffffffffffffffffffffff1681526020018873ffffffffffffffffffffffffffffffffffffffff168152602001878152602001868152602001858152602001848152602001838152602001828152602001995050505050505050505060405180910390f35b6000600160008481526020019081526020016000209050600115158160060160009054906101000a900460ff16151514610c8d576040517f08c379a000000000000000000000000000000000000000000000000000000000815260040180806020018281038252601a8152602001807f506f6f6c2073656c65637465642069736e27742061637469766500000000000081525060200191505060405180910390fd5b6000610cab83610c9d86336112f6565b61324790919063ffffffff16565b90506000610cc68484600c015461324790919063ffffffff16565b905082600401544210610d24576040517f08c379a0000000000000000000000000000000000000000000000000000000008152600401808060200182810382526031815260200180613d976031913960400191505060405180910390fd5b8260090160010154811115610d84576040517f08c379a0000000000000000000000000000000000000000000000000000000008152600401808060200182810382526035815260200180613e0d6035913960400191505060405180910390fd5b8260090160000154821115610de4576040517f08c379a0000000000000000000000000000000000000000000000000000000008152600401808060200182810382526027815260200180613ea96027913960400191505060405180910390fd5b60008360020160009054906101000a900473ffffffffffffffffffffffffffffffffffffffff169050848173ffffffffffffffffffffffffffffffffffffffff166370a08231336040518263ffffffff1660e01b8152600401808273ffffffffffffffffffffffffffffffffffffffff16815260200191505060206040518083038186803b158015610e7557600080fd5b505afa158015610e89573d6000803e3d6000fd5b505050506040513d6020811015610e9f57600080fd5b81019080805190602001909291905050501015610f07576040517f08c379a0000000000000000000000000000000000000000000000000000000008152600401808060200182810382526021815260200180613e636021913960400191505060405180910390fd5b600115158173ffffffffffffffffffffffffffffffffffffffff166323b872dd3330896040518463ffffffff1660e01b8152600401808473ffffffffffffffffffffffffffffffffffffffff1681526020018373ffffffffffffffffffffffffffffffffffffffff1681526020018281526020019350505050602060405180830381600087803b158015610f9a57600080fd5b505af1158015610fae573d6000803e3d6000fd5b505050506040513d6020811015610fc457600080fd5b810190808051906020019092919050505015151461102d576040517f08c379a0000000000000000000000000000000000000000000000000000000008152600401808060200182810382526022815260200180613cc16022913960400191505060405180910390fd5b600084600b0160003373ffffffffffffffffffffffffffffffffffffffff1673ffffffffffffffffffffffffffffffffffffffff168152602001908152602001600020905080600001869080600181540180825580915050600190039060005260206000200160009091909190915055806001014290806001815401808255809150506001900390600052602060002001600090919091909150558285600c018190555050505050505050565b600281815481106110e757fe5b906000526020600020016000915090505481565b60608060608060038054905067ffffffffffffffff8111801561111d57600080fd5b5060405190808252806020026020018201604052801561114c5781602001602082028036833780820191505090505b509050606060038054905067ffffffffffffffff8111801561116d57600080fd5b5060405190808252806020026020018201604052801561119c5781602001602082028036833780820191505090505b509050606060038054905067ffffffffffffffff811180156111bd57600080fd5b506040519080825280602002602001820160405280156111ec5781602001602082028036833780820191505090505b50905060005b6003805490508110156112e457600160006003838154811061121057fe5b906000526020600020015481526020019081526020016000206007016001015484828151811061123c57fe5b602002602001018181525050600160006003838154811061125957fe5b90600052602060002001548152602001908152602001600020600c015483828151811061128257fe5b602002602001018181525050600160006003838154811061129f57fe5b90600052602060002001548152602001908152602001600020600901600101548282815181106112cb57fe5b60200260200101818152505080806001019150506111f2565b50828282955095509550505050909192565b600080600160008581526020019081526020016000209050600081600b0160008573ffffffffffffffffffffffffffffffffffffffff1673ffffffffffffffffffffffffffffffffffffffff16815260200190815260200160002090506000805b82600001805490508110156113915782600001818154811061137557fe5b9060005260206000200154820191508080600101915050611357565b5080935050505092915050565b6000806001600084815260200190815260200160002090508060050154421161142f576040517f08c379a000000000000000000000000000000000000000000000000000000000815260040180806020018281038252601e8152602001807f506f6f6c20656e6420646174652069736e74207265616368656420796574000081525060200191505060405180910390fd5b6000339050600061144085836112f6565b9050600081116114b8576040517f08c379a00000000000000000000000000000000000000000000000000000000081526004018080602001828103825260148152602001807f4e6f2066756e647320746f20776974686472617700000000000000000000000081525060200191505060405180910390fd5b60008360020160009054906101000a900473ffffffffffffffffffffffffffffffffffffffff169050818173ffffffffffffffffffffffffffffffffffffffff166370a08231306040518263ffffffff1660e01b8152600401808273ffffffffffffffffffffffffffffffffffffffff16815260200191505060206040518083038186803b15801561154957600080fd5b505afa15801561155d573d6000803e3d6000fd5b505050506040513d602081101561157357600080fd5b810190808051906020019092919050505010156115f8576040517f08c379a00000000000000000000000000000000000000000000000000000000081526004018080602001828103825260198152602001807f496e76616c69642066756e647320696e2074686520706f6f6c0000000000000081525060200191505060405180910390fd5b600115158173ffffffffffffffffffffffffffffffffffffffff1663a9059cbb33856040518363ffffffff1660e01b8152600401808373ffffffffffffffffffffffffffffffffffffffff16815260200182815260200192505050602060405180830381600087803b15801561166d57600080fd5b505af1158015611681573d6000803e3d6000fd5b505050506040513d602081101561169757600080fd5b810190808051906020019092919050505015151461171d576040517f08c379a000000000000000000000000000000000000000000000000000000000815260040180806020018281038252601e8152602001807f4572726f72207472616e73666572206f6e2074686520636f6e7472616374000081525060200191505060405180910390fd5b8360060160009054906101000a900460ff16156117885761174184600001546132cf565b60008460060160006101000a81548160ff02191690831515021790555060048690806001815401808255809150506001900390600052602060002001600090919091909150555b60006117958785856134ad565b9050600085600b0160008673ffffffffffffffffffffffffffffffffffffffff1673ffffffffffffffffffffffffffffffffffffffff168152602001908152602001600020905060005b816000018054905081101561181a5760008260000182815481106117ff57fe5b906000526020600020018190555080806001019150506117df565b50819650505050505050919050565b6004818154811061183657fe5b906000526020600020016000915090505481565b606080606080606080606060038054905067ffffffffffffffff8111801561187157600080fd5b506040519080825280602002602001820160405280156118a05781602001602082028036833780820191505090505b509050606060038054905067ffffffffffffffff811180156118c157600080fd5b506040519080825280602002602001820160405280156118f05781602001602082028036833780820191505090505b509050606060038054905067ffffffffffffffff8111801561191157600080fd5b506040519080825280602002602001820160405280156119405781602001602082028036833780820191505090505b509050606060038054905067ffffffffffffffff8111801561196157600080fd5b506040519080825280602002602001820160405280156119905781602001602082028036833780820191505090505b509050606060038054905067ffffffffffffffff811180156119b157600080fd5b506040519080825280602002602001820160405280156119e05781602001602082028036833780820191505090505b509050606060038054905067ffffffffffffffff81118015611a0157600080fd5b50604051908082528060200260200182016040528015611a305781602001602082028036833780820191505090505b50905060005b600380549050811015611c90576001600060038381548110611a5457fe5b9060005260206000200154815260200190815260200160002060000154878281518110611a7d57fe5b6020026020010181815250506001600060038381548110611a9a57fe5b9060005260206000200154815260200190815260200160002060010154868281518110611ac357fe5b6020026020010181815250506001600060038381548110611ae057fe5b9060005260206000200154815260200190815260200160002060020160009054906101000a900473ffffffffffffffffffffffffffffffffffffffff16858281518110611b2957fe5b602002602001019073ffffffffffffffffffffffffffffffffffffffff16908173ffffffffffffffffffffffffffffffffffffffff16815250506001600060038381548110611b7457fe5b9060005260206000200154815260200190815260200160002060030160009054906101000a900473ffffffffffffffffffffffffffffffffffffffff16848281518110611bbd57fe5b602002602001019073ffffffffffffffffffffffffffffffffffffffff16908173ffffffffffffffffffffffffffffffffffffffff16815250506001600060038381548110611c0857fe5b9060005260206000200154815260200190815260200160002060040154838281518110611c3157fe5b6020026020010181815250506001600060038381548110611c4e57fe5b9060005260206000200154815260200190815260200160002060050154828281518110611c7757fe5b6020026020010181815250508080600101915050611a36565b508585858585859b509b509b509b509b509b50505050505050909192939495565b606080606080606080606060028054905067ffffffffffffffff81118015611cd857600080fd5b50604051908082528060200260200182016040528015611d075781602001602082028036833780820191505090505b509050606060028054905067ffffffffffffffff81118015611d2857600080fd5b50604051908082528060200260200182016040528015611d575781602001602082028036833780820191505090505b509050606060028054905067ffffffffffffffff81118015611d7857600080fd5b50604051908082528060200260200182016040528015611da75781602001602082028036833780820191505090505b509050606060028054905067ffffffffffffffff81118015611dc857600080fd5b50604051908082528060200260200182016040528015611df75781602001602082028036833780820191505090505b509050606060028054905067ffffffffffffffff81118015611e1857600080fd5b50604051908082528060200260200182016040528015611e475781602001602082028036833780820191505090505b509050606060028054905067ffffffffffffffff81118015611e6857600080fd5b50604051908082528060200260200182016040528015611e975781602001602082028036833780820191505090505b50905060005b6002805490508110156120f7576001600060028381548110611ebb57fe5b9060005260206000200154815260200190815260200160002060000154878281518110611ee457fe5b6020026020010181815250506001600060028381548110611f0157fe5b9060005260206000200154815260200190815260200160002060010154868281518110611f2a57fe5b6020026020010181815250506001600060028381548110611f4757fe5b9060005260206000200154815260200190815260200160002060020160009054906101000a900473ffffffffffffffffffffffffffffffffffffffff16858281518110611f9057fe5b602002602001019073ffffffffffffffffffffffffffffffffffffffff16908173ffffffffffffffffffffffffffffffffffffffff16815250506001600060028381548110611fdb57fe5b9060005260206000200154815260200190815260200160002060030160009054906101000a900473ffffffffffffffffffffffffffffffffffffffff1684828151811061202457fe5b602002602001019073ffffffffffffffffffffffffffffffffffffffff16908173ffffffffffffffffffffffffffffffffffffffff1681525050600160006002838154811061206f57fe5b906000526020600020015481526020019081526020016000206004015483828151811061209857fe5b60200260200101818152505060016000600283815481106120b557fe5b90600052602060002001548152602001908152602001600020600501548282815181106120de57fe5b6020026020010181815250508080600101915050611e9d565b508585858585859b509b509b509b509b509b50505050505050909192939495565b60008060009054906101000a900473ffffffffffffffffffffffffffffffffffffffff1673ffffffffffffffffffffffffffffffffffffffff163373ffffffffffffffffffffffffffffffffffffffff16146121bf576040517f08c379a0000000000000000000000000000000000000000000000000000000008152600401808060200182810382526024815260200180613d736024913960400191505060405180910390fd5b6000889050848173ffffffffffffffffffffffffffffffffffffffff166370a08231306040518263ffffffff1660e01b8152600401808273ffffffffffffffffffffffffffffffffffffffff16815260200191505060206040518083038186803b15801561222c57600080fd5b505afa158015612240573d6000803e3d6000fd5b505050506040513d602081101561225657600080fd5b810190808051906020019092919050505010156122be576040517f08c379a0000000000000000000000000000000000000000000000000000000008152600401808060200182810382526042815260200180613d316042913960600191505060405180910390fd5b60008b6122ca8a613813565b6122d38a613813565b604051602001808481526020018060200180602001838103835285818151815260200191508051906020019080838360005b83811015612320578082015181840152602081019050612305565b50505050905090810190601f16801561234d5780820380516001836020036101000a031916815260200191505b50838103825284818151815260200191508051906020019080838360005b8381101561238657808201518184015260208101905061236b565b50505050905090810190601f1680156123b35780820380516001836020036101000a031916815260200191505b509550505050505060405160208183030381529060405280519060200120905060006001600083815260200190815260200160002090508181600001819055508c81600101819055508b8160020160006101000a81548173ffffffffffffffffffffffffffffffffffffffff021916908373ffffffffffffffffffffffffffffffffffffffff1602179055508a8160030160006101000a81548173ffffffffffffffffffffffffffffffffffffffff021916908373ffffffffffffffffffffffffffffffffffffffff160217905550898160040181905550888160050181905550878160060160006101000a81548160ff0219169083151502179055506124b8613c01565b8781602001818152505087816000018181525050808260070160008201518160000155602082015181600101559050506124f0613c1b565b87816000018181525050868160200181815250508083600901600082015181600001556020820151816001015590505061253c8460016000878152602001908152602001600020613957565b83955050505050509998505050505050505050565b606080606080606080606060048054905067ffffffffffffffff8111801561257857600080fd5b506040519080825280602002602001820160405280156125a75781602001602082028036833780820191505090505b509050606060048054905067ffffffffffffffff811180156125c857600080fd5b506040519080825280602002602001820160405280156125f75781602001602082028036833780820191505090505b509050606060048054905067ffffffffffffffff8111801561261857600080fd5b506040519080825280602002602001820160405280156126475781602001602082028036833780820191505090505b509050606060048054905067ffffffffffffffff8111801561266857600080fd5b506040519080825280602002602001820160405280156126975781602001602082028036833780820191505090505b509050606060048054905067ffffffffffffffff811180156126b857600080fd5b506040519080825280602002602001820160405280156126e75781602001602082028036833780820191505090505b509050606060048054905067ffffffffffffffff8111801561270857600080fd5b506040519080825280602002602001820160405280156127375781602001602082028036833780820191505090505b50905060005b60048054905081101561299757600160006004838154811061275b57fe5b906000526020600020015481526020019081526020016000206000015487828151811061278457fe5b60200260200101818152505060016000600483815481106127a157fe5b90600052602060002001548152602001908152602001600020600101548682815181106127ca57fe5b60200260200101818152505060016000600483815481106127e757fe5b9060005260206000200154815260200190815260200160002060020160009054906101000a900473ffffffffffffffffffffffffffffffffffffffff1685828151811061283057fe5b602002602001019073ffffffffffffffffffffffffffffffffffffffff16908173ffffffffffffffffffffffffffffffffffffffff1681525050600160006004838154811061287b57fe5b9060005260206000200154815260200190815260200160002060030160009054906101000a900473ffffffffffffffffffffffffffffffffffffffff168482815181106128c457fe5b602002602001019073ffffffffffffffffffffffffffffffffffffffff16908173ffffffffffffffffffffffffffffffffffffffff1681525050600160006004838154811061290f57fe5b906000526020600020015481526020019081526020016000206004015483828151811061293857fe5b602002602001018181525050600160006004838154811061295557fe5b906000526020600020015481526020019081526020016000206005015482828151811061297e57fe5b602002602001018181525050808060010191505061273d565b508585858585859b509b509b509b509b509b50505050505050909192939495565b600381815481106129c557fe5b906000526020600020016000915090505481565b60008054906101000a900473ffffffffffffffffffffffffffffffffffffffff1673ffffffffffffffffffffffffffffffffffffffff163373ffffffffffffffffffffffffffffffffffffffff1614612a7d576040517f08c379a000000000000000000000000000000000000000000000000000000000815260040180806020018281038252602c815260200180613ce3602c913960400191505060405180910390fd5b60006001600083815260200190815260200160002090506000816007016000015411612af4576040517f08c379a0000000000000000000000000000000000000000000000000000000008152600401808060200182810382526022815260200180613d0f6022913960400191505060405180910390fd5b80600501544211612b6d576040517f08c379a000000000000000000000000000000000000000000000000000000000815260040180806020018281038252601e8152602001807f506f6f6c20656e6420646174652069736e74207265616368656420796574000081525060200191505060405180910390fd5b60008160030160009054906101000a900473ffffffffffffffffffffffffffffffffffffffff16905060008173ffffffffffffffffffffffffffffffffffffffff166370a08231306040518263ffffffff1660e01b8152600401808273ffffffffffffffffffffffffffffffffffffffff16815260200191505060206040518083038186803b158015612bff57600080fd5b505afa158015612c13573d6000803e3d6000fd5b505050506040513d6020811015612c2957600080fd5b8101908080519060200190929190505050905060008360070160000154821015612c5557819050612c60565b836007016000015490505b600115158373ffffffffffffffffffffffffffffffffffffffff1663a9059cbb60008054906101000a900473ffffffffffffffffffffffffffffffffffffffff16846040518363ffffffff1660e01b8152600401808373ffffffffffffffffffffffffffffffffffffffff16815260200182815260200192505050602060405180830381600087803b158015612cf557600080fd5b505af1158015612d09573d6000803e3d6000fd5b505050506040513d6020811015612d1f57600080fd5b8101908080519060200190929190505050151514612da5576040517f08c379a000000000000000000000000000000000000000000000000000000000815260040180806020018281038252601e8152602001807f4572726f72207472616e73666572206f6e2074686520636f6e7472616374000081525060200191505060405180910390fd5b600084600701600001819055505050505050565b60608060608060048054905067ffffffffffffffff81118015612ddb57600080fd5b50604051908082528060200260200182016040528015612e0a5781602001602082028036833780820191505090505b509050606060048054905067ffffffffffffffff81118015612e2b57600080fd5b50604051908082528060200260200182016040528015612e5a5781602001602082028036833780820191505090505b509050606060048054905067ffffffffffffffff81118015612e7b57600080fd5b50604051908082528060200260200182016040528015612eaa5781602001602082028036833780820191505090505b50905060005b600480549050811015612fa2576001600060048381548110612ece57fe5b9060005260206000200154815260200190815260200160002060070160010154848281518110612efa57fe5b6020026020010181815250506001600060048381548110612f1757fe5b90600052602060002001548152602001908152602001600020600c0154838281518110612f4057fe5b6020026020010181815250506001600060048381548110612f5d57fe5b9060005260206000200154815260200190815260200160002060090160010154828281518110612f8957fe5b6020026020010181815250508080600101915050612eb0565b50828282955095509550505050909192565b60008054906101000a900473ffffffffffffffffffffffffffffffffffffffff1673ffffffffffffffffffffffffffffffffffffffff163373ffffffffffffffffffffffffffffffffffffffff1614613058576040517f08c379a0000000000000000000000000000000000000000000000000000000008152600401808060200182810382526023815260200180613dea6023913960400191505060405180910390fd5b600060016000848152602001908152602001600020905081801561308b57508060060160009054906101000a900460ff16155b1561309f5761309a83826139a6565b6130cb565b811580156130bb57508060060160009054906101000a900460ff165b156130ca576130c9836132cf565b5b5b818160060160006101000a81548160ff021916908315150217905550505050565b6000806001600084815260200190815260200160002090508060070160000154915050919050565b600080600080600080600080600080600160008c815260200190815260200160002090508a8160000154146131b1576040517f08c379a00000000000000000000000000000000000000000000000000000000081526004018080602001828103825260138152602001807f496e76616c696420506f6f6c20696e646963650000000000000000000000000081525060200191505060405180910390fd5b80600101548160020160009054906101000a900473ffffffffffffffffffffffffffffffffffffffff168260030160009054906101000a900473ffffffffffffffffffffffffffffffffffffffff16836007016001015484600c01548560090160010154866009016000015487600401548860050154995099509950995099509950995099509950509193959799909294969850565b6000808284019050838110156132c5576040517f08c379a000000000000000000000000000000000000000000000000000000000815260040180806020018281038252601b8152602001807f536166654d6174683a206164646974696f6e206f766572666c6f77000000000081525060200191505060405180910390fd5b8091505092915050565b600060038054905014156132e2576134aa565b6001600380549050141561330357600360006132fe9190613c35565b6134aa565b606060016003805490500367ffffffffffffffff8111801561332457600080fd5b506040519080825280602002602001820160405280156133535781602001602082028036833780820191505090505b5090506000805b6003805490508110156133df5783600160006003848154811061337957fe5b9060005260206000200154815260200190815260200160002060000154146133d257600381815481106133a857fe5b90600052602060002001548383806001019450815181106133c557fe5b6020026020010181815250505b808060010191505061335a565b5081600390805190602001906133f6929190613c56565b5060006001600085815260200190815260200160002090507f70a81e12855acd8436fe738bf41091c14a1ce6df65bfdc0123605f67097116ba816000015482600101548360060160009054906101000a900460ff16846007016000015485600901600101548660040154876005015460405180888152602001878152602001861515815260200185815260200184815260200183815260200182815260200197505050505050505060405180910390a15050505b50565b6000806001600086815260200190815260200160002090506000613507600a6134f984600901600001546134eb606489613a6b90919063ffffffff16565b613af190919063ffffffff16565b613a6b90919063ffffffff16565b90506000612710828460070160010154028161351f57fe5b04905060008360030160009054906101000a900473ffffffffffffffffffffffffffffffffffffffff169050818173ffffffffffffffffffffffffffffffffffffffff166370a08231306040518263ffffffff1660e01b8152600401808273ffffffffffffffffffffffffffffffffffffffff16815260200191505060206040518083038186803b1580156135b357600080fd5b505afa1580156135c7573d6000803e3d6000fd5b505050506040513d60208110156135dd57600080fd5b81019080805190602001909291905050501015613645576040517f08c379a0000000000000000000000000000000000000000000000000000000008152600401808060200182810382526022815260200180613dc86022913960400191505060405180910390fd5b600115158173ffffffffffffffffffffffffffffffffffffffff1663a9059cbb89856040518363ffffffff1660e01b8152600401808373ffffffffffffffffffffffffffffffffffffffff16815260200182815260200192505050602060405180830381600087803b1580156136ba57600080fd5b505af11580156136ce573d6000803e3d6000fd5b505050506040513d60208110156136e457600080fd5b810190808051906020019092919050505015151461374d576040517f08c379a0000000000000000000000000000000000000000000000000000000008152600401808060200182810382526025815260200180613e846025913960400191505060405180910390fd5b8184600701600001600082825403925050819055507f33e7f89fd345b3cc8a5aee65390bf7580c13a3386f2cfa13d8498d49e0b06c8a846000015483898760030160009054906101000a900473ffffffffffffffffffffffffffffffffffffffff16604051808581526020018481526020018373ffffffffffffffffffffffffffffffffffffffff1681526020018273ffffffffffffffffffffffffffffffffffffffff16815260200194505050505060405180910390a1819450505050509392505050565b6060600082141561385b576040518060400160405280600181526020017f30000000000000000000000000000000000000000000000000000000000000008152509050613952565b600082905060005b60008214613885578080600101915050600a828161387d57fe5b049150613863565b60608167ffffffffffffffff8111801561389e57600080fd5b506040519080825280601f01601f1916602001820160405280156138d15781602001600182028036833780820191505090505b50905060006001830390505b6000861461394a57600a86816138ef57fe5b0660300160f81b8282806001900393508151811061390957fe5b60200101907effffffffffffffffffffffffffffffffffffffffffffffffffffffffffffff1916908160001a905350600a868161394257fe5b0495506138dd565b819450505050505b919050565b60028290806001815401808255809150506001900390600052602060002001600090919091909150558060060160009054906101000a900460ff16156139a2576139a182826139a6565b5b5050565b60038290806001815401808255809150506001900390600052602060002001600090919091909150557fbbda8d1640d50d77f5916981daf4f5cf83a9b3bc724b83924fba09497d81d94b816000015482600101548360060160009054906101000a900460ff16846007016000015485600901600101548660040154876005015460405180888152602001878152602001861515815260200185815260200184815260200183815260200182815260200197505050505050505060405180910390a15050565b600080831415613a7e5760009050613aeb565b6000828402905082848281613a8f57fe5b0414613ae6576040517f08c379a0000000000000000000000000000000000000000000000000000000008152600401808060200182810382526021815260200180613e426021913960400191505060405180910390fd5b809150505b92915050565b6000613b3383836040518060400160405280601a81526020017f536166654d6174683a206469766973696f6e206279207a65726f000000000000815250613b3b565b905092915050565b60008083118290613be7576040517f08c379a00000000000000000000000000000000000000000000000000000000081526004018080602001828103825283818151815260200191508051906020019080838360005b83811015613bac578082015181840152602081019050613b91565b50505050905090810190601f168015613bd95780820380516001836020036101000a031916815260200191505b509250505060405180910390fd5b506000838581613bf357fe5b049050809150509392505050565b604051806040016040528060008152602001600081525090565b604051806040016040528060008152602001600081525090565b5080546000825590600052602060002090810190613c539190613ca3565b50565b828054828255906000526020600020908101928215613c92579160200282015b82811115613c91578251825591602001919060010190613c76565b5b509050613c9f9190613ca3565b5090565b5b80821115613cbc576000816000905550600101613ca4565b509056fe4572726f72207472616e7366657246726f6d206f6e2074686520636f6e74726163744e6f7420617574686f72697a656420746f20776974686472617720706f6f6c207265776172642066756e64734e6f20616d6f756e742072657761726473206c65667420696e2074686520706f6f6c43616e7420637265617465207468697320706f6f6c206361757365206f757470757420617373657420726577617264732066756e64732061726520746f6f206c6f774e6f7420617574686f72697a656420746f207075626c6973682061206e657720706f6f6c506f6f6c20616c726561647920737461727465642c20796f752063616e74207374616b6520696e2074686973206f6e6521496e76616c696420706f6f6c20636f6e7472616374206f75747075742066756e64734e6f7420617574686f72697a656420746f2075706461746520706f6f6c2073746174654d617820706f6f6c2063617020616c726561647920726561636865642c20796f752063616e74206a6f696e207468697320706f6f6c536166654d6174683a206d756c7469706c69636174696f6e206f766572666c6f77496e76616c69642066756e647320746f206465706f73697420696e20706f6f6c734572726f72207472616e7366657220726577617264206f6e2074686520636f6e74726163744d61782077616c6c657420616d6f756e74207265616368656420666f72207468697320706f6f6ca26469706673582212206017addea41ffd2db06631853862e460e8e2345f674b679ad96745d94e78e29964736f6c63430007000033",
  "immutableReferences": {},
  "source": "// SPDX-License-Identifier: MIT\r\n\r\npragma solidity ^0.7.0;\r\n\r\nimport \"./interfaces/IERC20.sol\";\r\nimport \"./maths/SafeMath.sol\";\r\nimport \"./structures/PoolStruct.sol\";\r\nimport \"./libs/string.sol\";\r\n\r\ncontract PeetStakingContract {\r\n    using SafeMath for uint256;\r\n    using strings for *;\r\n\r\n    address private _poolManager;\r\n    \r\n    mapping(bytes32 => PoolStructure) private _pools;\r\n\r\n    bytes32[] public allPoolsIndices;\r\n    bytes32[] public activePoolsIndices;\r\n    bytes32[] public endedPoolsIndices;\r\n\r\n    constructor(address manager) {\r\n        _poolManager = manager;\r\n    }\r\n\r\n    event LogNewPublishedPool(\r\n        bytes32 pool_indice,\r\n        bytes32 pool_name,\r\n        bool state,\r\n        uint256 amount_reward,\r\n        uint256 participation,\r\n        uint256 startDate,\r\n        uint256 endDate\r\n    );\r\n\r\n   event LogUpdatedPublishedPool(\r\n        bytes32 pool_indice,\r\n        bytes32 pool_name,\r\n        bool state,\r\n        uint256 amount_reward,\r\n        uint256 participation,\r\n        uint256 startDate,\r\n        uint256 endDate\r\n    );\r\n\r\n    event RewardReceivedFromPool(\r\n        bytes32 pool_indice,\r\n        uint256 amount_reward,\r\n        address receiver,\r\n        address output_asset\r\n    );\r\n\r\n    function removeActivePoolIndexation(bytes32 indice) private {\r\n        if (activePoolsIndices.length == 0) { \r\n            return;\r\n        }\r\n        if (activePoolsIndices.length == 1) {\r\n            delete activePoolsIndices;\r\n            return;\r\n        }\r\n        bytes32[] memory newArray = new bytes32[](activePoolsIndices.length - 1);\r\n        uint256 new_index = 0;\r\n\r\n        for (uint256 i = 0; i < activePoolsIndices.length; i++) {\r\n            if (_pools[activePoolsIndices[i]].pool_indice != indice) {\r\n                newArray[new_index++] = activePoolsIndices[i];\r\n            }\r\n        }\r\n        activePoolsIndices = newArray;\r\n        PoolStructure storage pool = _pools[indice];\r\n\r\n        // emit disabled pool event\r\n        emit LogUpdatedPublishedPool(\r\n            pool.pool_indice,\r\n            pool.pool_name,\r\n            pool.pool_active,\r\n            pool.rewards_pool.amount_reward,\r\n            pool.funds_pool.max_total_participation,\r\n            pool.start_date,\r\n            pool.end_date\r\n        );\r\n    }\r\n\r\n    function enableActivePoolIndexation(bytes32 indice, PoolStructure storage pool) private {\r\n        activePoolsIndices.push(indice);\r\n\r\n        // emit enabled pool event\r\n        emit LogNewPublishedPool(\r\n            pool.pool_indice,\r\n            pool.pool_name,\r\n            pool.pool_active,\r\n            pool.rewards_pool.amount_reward,\r\n            pool.funds_pool.max_total_participation,\r\n            pool.start_date,\r\n            pool.end_date\r\n        );\r\n    }\r\n\r\n    function addPoolToIndexation(bytes32 indice, PoolStructure storage pool) private {\r\n        // for all pool history\r\n        allPoolsIndices.push(indice);\r\n\r\n        // save the indice key in case the pool is already active at publishment\r\n        if (pool.pool_active) {\r\n            enableActivePoolIndexation(indice, pool);\r\n        }\r\n    }\r\n\r\n    function getTotalWalletPoolInputAmount (bytes32 indice, address addr) public view returns(uint256) {\r\n        PoolStructure storage pool = _pools[indice];\r\n        PoolWallet storage wallet = pool._wallets[addr];\r\n\r\n        uint256 amountInPool = 0;\r\n        for (uint256 i = 0; i < wallet.input_asset_amount.length; i++) {\r\n            amountInPool += wallet.input_asset_amount[i];\r\n        }\r\n        return amountInPool;\r\n    }\r\n\r\n    function updatePoolState(bytes32 indice, bool state) public {\r\n        require(\r\n            msg.sender == _poolManager,\r\n            \"Not authorized to update pool state\"\r\n        );\r\n        PoolStructure storage pool = _pools[indice];\r\n        if (state && !pool.pool_active) {\r\n            enableActivePoolIndexation(indice, pool);\r\n        } else if (!state && pool.pool_active) {\r\n            removeActivePoolIndexation(indice);\r\n        }\r\n        pool.pool_active = state;\r\n    }\r\n\r\n    function depositInPool(bytes32 indice, uint256 amount) public {\r\n        PoolStructure storage pool = _pools[indice];\r\n        require(\r\n            pool.pool_active == true,\r\n            \"Pool selected isn't active\"\r\n        );\r\n        uint256 totalWalletPooled = getTotalWalletPoolInputAmount(indice, address(msg.sender)).add(amount);\r\n        uint256 totalPoolInputAsset = pool.total_amount_input_pooled.add(amount);\r\n\r\n        require(\r\n            block.timestamp < pool.start_date,\r\n            \"Pool already started, you cant stake in this one!\"\r\n        );\r\n        \r\n        require(\r\n            totalPoolInputAsset <= pool.funds_pool.max_total_participation,\r\n            \"Max pool cap already reached, you cant join this pool\"\r\n        );\r\n\r\n        require(\r\n            totalWalletPooled <= pool.funds_pool.max_wallet_participation,\r\n            \"Max wallet amount reached for this pool\"\r\n        );\r\n\r\n        IERC20 input_token = IERC20(address(pool.input_asset));\r\n        require(\r\n            input_token.balanceOf(address(msg.sender)) >= amount,\r\n            \"Invalid funds to deposit in pools\"\r\n        );\r\n        require(\r\n            input_token.transferFrom(msg.sender, address(this), amount) == true,\r\n            \"Error transferFrom on the contract\"\r\n        );\r\n\r\n        PoolWallet storage wallet = pool._wallets[address(msg.sender)];\r\n        wallet.input_asset_amount.push(amount);\r\n        wallet.start_date_pooled.push(block.timestamp);\r\n\r\n        pool.total_amount_input_pooled = totalPoolInputAsset;\r\n    }\r\n\r\n    function calculateAndSendReward(bytes32 indice, address from, uint256 inputAmount) private returns(uint256) {\r\n        PoolStructure storage pool = _pools[indice];\r\n        uint256 weightPercent = inputAmount.mul(100).div(pool.funds_pool.max_wallet_participation).mul(10);\r\n        uint256 rewardAmount = pool.rewards_pool.base_amount_reward * weightPercent / 10000;\r\n\r\n        IERC20 output_token = IERC20(address(pool.output_asset));\r\n        require(\r\n            output_token.balanceOf(address(this)) >= rewardAmount,\r\n            \"Invalid pool contract output funds\"\r\n        );\r\n        \r\n        require(\r\n             output_token.transfer(from, rewardAmount) == true,\r\n            \"Error transfer reward on the contract\"\r\n        );\r\n\r\n        pool.rewards_pool.amount_reward -= rewardAmount;\r\n\r\n        // emit event received reward\r\n        emit RewardReceivedFromPool(pool.pool_indice,\r\n         rewardAmount, from, pool.output_asset);\r\n\r\n        return rewardAmount;\r\n    }\r\n\r\n    function leftRewardsInPool(bytes32 indice) public view returns(uint256) {\r\n        PoolStructure storage pool = _pools[indice];\r\n        return pool.rewards_pool.amount_reward;\r\n    }\r\n\r\n    function withdrawPoolRewardsUnconsumed(bytes32 indice) public {\r\n         require(\r\n            msg.sender == _poolManager,\r\n            \"Not authorized to withdraw pool reward funds\"\r\n        );\r\n\r\n        PoolStructure storage pool = _pools[indice];\r\n        require(\r\n            pool.rewards_pool.amount_reward > 0,\r\n            \"No amount rewards left in the pool\"\r\n        );\r\n        \r\n        require(\r\n            block.timestamp > pool.end_date,\r\n            \"Pool end date isnt reached yet\"\r\n        );\r\n        \r\n        IERC20 output_token = IERC20(address(pool.output_asset));\r\n        uint256 balanceToken = output_token.balanceOf(address(this));\r\n        uint256 withdrawalAmount = 0;\r\n\r\n        // allow pool manager to retire unconsumed rewards from the total pool cap\r\n        if (balanceToken < pool.rewards_pool.amount_reward) {\r\n            withdrawalAmount = balanceToken;\r\n        } else {\r\n            withdrawalAmount = pool.rewards_pool.amount_reward;\r\n        }\r\n\r\n        require(\r\n            output_token.transfer(_poolManager, withdrawalAmount) == true,\r\n            \"Error transfer on the contract\"\r\n        );\r\n        pool.rewards_pool.amount_reward = 0;\r\n    }\r\n\r\n    function withdrawFromPool(bytes32 indice) public returns (uint256) {\r\n        PoolStructure storage pool = _pools[indice];\r\n        require(\r\n            block.timestamp > pool.end_date,\r\n            \"Pool end date isnt reached yet\"\r\n        );\r\n        address sender = address(msg.sender);\r\n        uint256 walletInputAmount = getTotalWalletPoolInputAmount(indice, sender);\r\n\r\n        require (\r\n            walletInputAmount > 0,\r\n            \"No funds to withdraw\"\r\n        );\r\n        IERC20 input_token = IERC20(address(pool.input_asset));\r\n        require(\r\n            input_token.balanceOf(address(this)) >= walletInputAmount,\r\n            \"Invalid funds in the pool\"\r\n        );\r\n        require(\r\n            input_token.transfer(msg.sender, walletInputAmount) == true,\r\n            \"Error transfer on the contract\"\r\n        );\r\n\r\n        if (pool.pool_active) {\r\n            removeActivePoolIndexation(pool.pool_indice);\r\n            pool.pool_active = false;\r\n            endedPoolsIndices.push(indice);\r\n        }\r\n\r\n        uint256 rewardAmount = calculateAndSendReward(indice, sender, walletInputAmount);\r\n\r\n        // we reset the input amount just sent back\r\n        PoolWallet storage wallet = pool._wallets[sender];\r\n        for (uint256 i = 0; i < wallet.input_asset_amount.length; i++) {\r\n            wallet.input_asset_amount[i] = 0;\r\n        }\r\n\r\n        return rewardAmount;\r\n    }\r\n\r\n    function publishPool(bytes32 name, address in_asset,\r\n        address out_asset, uint256 start_date, uint256 end_date,\r\n        bool state_pool, uint256 amount_reward, uint max_wallet, uint max_total) public returns(bytes32) {\r\n        \r\n        require(\r\n            msg.sender == _poolManager,\r\n            \"Not authorized to publish a new pool\"\r\n        );\r\n\r\n        IERC20 _reward_token = IERC20(address(out_asset));\r\n        require(\r\n            _reward_token.balanceOf(address(this)) >= amount_reward,\r\n            \"Cant create this pool cause output asset rewards funds are too low\"\r\n        );\r\n\r\n        bytes32 pool_indice = keccak256(abi.encode(name,\r\n          strings.uint2str(start_date), strings.uint2str(end_date)));\r\n\r\n        // Pool base structure\r\n        PoolStructure storage new_pool = _pools[pool_indice];\r\n        new_pool.pool_indice = pool_indice;\r\n        new_pool.pool_name = name;\r\n        new_pool.input_asset = in_asset;\r\n        new_pool.output_asset = out_asset;\r\n        new_pool.start_date = start_date;\r\n        new_pool.end_date = end_date;\r\n        new_pool.pool_active = state_pool;\r\n        \r\n        // Pool Rewards\r\n        PoolRewards memory rewards;\r\n        rewards.base_amount_reward = amount_reward;\r\n        rewards.amount_reward = amount_reward;\r\n        new_pool.rewards_pool = rewards;\r\n        //\r\n\r\n        // Pool Funds\r\n        PoolFunds memory funds;\r\n        funds.max_wallet_participation = max_wallet;\r\n        funds.max_total_participation = max_total;\r\n        new_pool.funds_pool = funds;\r\n        //\r\n\r\n        addPoolToIndexation(pool_indice, _pools[pool_indice]);\r\n        return pool_indice;\r\n    }\r\n\r\n    function fetchLivePoolsPlus() public view returns(uint256 [] memory, uint256 [] memory, uint256 [] memory) {\r\n        uint256 [] memory amount_reward = new uint256[](activePoolsIndices.length);\r\n        uint256 [] memory total_pooled = new uint256[](activePoolsIndices.length);\r\n        uint256 [] memory max_pooled = new uint256[](activePoolsIndices.length);\r\n\r\n        for (uint i = 0; i < activePoolsIndices.length; i++) {\r\n            amount_reward[i] = _pools[activePoolsIndices[i]].rewards_pool.base_amount_reward;\r\n            total_pooled[i] = _pools[activePoolsIndices[i]].total_amount_input_pooled;\r\n            max_pooled[i] = _pools[activePoolsIndices[i]].funds_pool.max_total_participation;\r\n        }\r\n        return (amount_reward, total_pooled, max_pooled);\r\n    }\r\n\r\n    function fetchLivePools() public view returns(bytes32 [] memory, bytes32 [] memory, address [] memory,\r\n    address [] memory, uint256 [] memory, uint256 [] memory) {\r\n        bytes32 [] memory indices = new bytes32[](activePoolsIndices.length);\r\n        bytes32 [] memory names = new bytes32[](activePoolsIndices.length);\r\n        address [] memory input_assets = new address[](activePoolsIndices.length);\r\n        address [] memory output_assets = new address[](activePoolsIndices.length);\r\n        uint256 [] memory starts = new uint256[](activePoolsIndices.length);\r\n        uint256 [] memory ends = new uint256[](activePoolsIndices.length);\r\n\r\n\r\n        for (uint i = 0; i < activePoolsIndices.length; i++) {\r\n            indices[i] =  _pools[activePoolsIndices[i]].pool_indice;\r\n            names[i] =  _pools[activePoolsIndices[i]].pool_name;\r\n            input_assets[i] = _pools[activePoolsIndices[i]].input_asset;\r\n            output_assets[i] = _pools[activePoolsIndices[i]].output_asset;\r\n            starts[i] = _pools[activePoolsIndices[i]].start_date;\r\n            ends[i] = _pools[activePoolsIndices[i]].end_date;\r\n        }\r\n        return (indices, names, input_assets, \r\n        output_assets, starts, ends);\r\n    }\r\n    \r\n    function fetchAllPools() public view returns(bytes32 [] memory, bytes32 [] memory, address [] memory,\r\n    address [] memory, uint256 [] memory, uint256 [] memory) {\r\n        bytes32 [] memory indices = new bytes32[](allPoolsIndices.length);\r\n        bytes32 [] memory names = new bytes32[](allPoolsIndices.length);\r\n        address [] memory input_assets = new address[](allPoolsIndices.length);\r\n        address [] memory output_assets = new address[](allPoolsIndices.length);\r\n        uint256 [] memory starts = new uint256[](allPoolsIndices.length);\r\n        uint256 [] memory ends = new uint256[](allPoolsIndices.length);\r\n\r\n        for (uint i = 0; i < allPoolsIndices.length; i++) {\r\n            indices[i] =  _pools[allPoolsIndices[i]].pool_indice;\r\n            names[i] =  _pools[allPoolsIndices[i]].pool_name;\r\n            input_assets[i] = _pools[allPoolsIndices[i]].input_asset;\r\n            output_assets[i] = _pools[allPoolsIndices[i]].output_asset;\r\n            starts[i] = _pools[allPoolsIndices[i]].start_date;\r\n            ends[i] = _pools[allPoolsIndices[i]].end_date;\r\n        }\r\n        return (indices, names, input_assets,\r\n         output_assets, starts, ends);\r\n    }\r\n\r\n    function fetchPool(bytes32 indice) public view returns(bytes32, address,\r\n        address, uint256, uint256, uint256, uint256, uint256, uint256) {\r\n         PoolStructure storage pool = _pools[indice];\r\n         require (\r\n            pool.pool_indice == indice,\r\n            \"Invalid Pool indice\"\r\n        );\r\n\r\n        return (pool.pool_name, pool.input_asset,\r\n         pool.output_asset, pool.rewards_pool.base_amount_reward,\r\n         pool.total_amount_input_pooled, pool.funds_pool.max_total_participation,\r\n         pool.funds_pool.max_wallet_participation,\r\n         pool.start_date, pool.end_date);\r\n    }\r\n\r\n    function fetchEndedPoolsPlus() public view returns(uint256 [] memory, uint256 [] memory, uint256 [] memory) {\r\n        uint256 [] memory amount_reward = new uint256[](endedPoolsIndices.length);\r\n        uint256 [] memory total_pooled = new uint256[](endedPoolsIndices.length);\r\n        uint256 [] memory max_pooled = new uint256[](endedPoolsIndices.length);\r\n\r\n        for (uint i = 0; i < endedPoolsIndices.length; i++) {\r\n            amount_reward[i] = _pools[endedPoolsIndices[i]].rewards_pool.base_amount_reward;\r\n            total_pooled[i] = _pools[endedPoolsIndices[i]].total_amount_input_pooled;\r\n            max_pooled[i] = _pools[endedPoolsIndices[i]].funds_pool.max_total_participation;\r\n        }\r\n        return (amount_reward, total_pooled, max_pooled);\r\n    }\r\n\r\n    function fetchEndedPools() public view returns(bytes32 [] memory, bytes32 [] memory, address [] memory,\r\n    address [] memory, uint256 [] memory, uint256 [] memory) {\r\n        bytes32 [] memory indices = new bytes32[](endedPoolsIndices.length);\r\n        bytes32 [] memory names = new bytes32[](endedPoolsIndices.length);\r\n        address [] memory input_assets = new address[](endedPoolsIndices.length);\r\n        address [] memory output_assets = new address[](endedPoolsIndices.length);\r\n        uint256 [] memory starts = new uint256[](endedPoolsIndices.length);\r\n        uint256 [] memory ends = new uint256[](endedPoolsIndices.length);\r\n\r\n\r\n        for (uint i = 0; i < endedPoolsIndices.length; i++) {\r\n            indices[i] =  _pools[endedPoolsIndices[i]].pool_indice;\r\n            names[i] =  _pools[endedPoolsIndices[i]].pool_name;\r\n            input_assets[i] = _pools[endedPoolsIndices[i]].input_asset;\r\n            output_assets[i] = _pools[endedPoolsIndices[i]].output_asset;\r\n            starts[i] = _pools[endedPoolsIndices[i]].start_date;\r\n            ends[i] = _pools[endedPoolsIndices[i]].end_date;\r\n        }\r\n        return (indices, names, input_assets, \r\n        output_assets, starts, ends);\r\n    }\r\n\r\n}",
  "sourcePath": "/mnt/f/eth/pte-staking/contracts/PeetStakingContract.sol",
  "compiler": {
    "name": "solc",
    "version": "0.7.0+commit.9e61f92b.Emscripten.clang"
  },
  "schemaVersion": "3.2.5",
  "updatedAt": "2020-12-20T03:37:26.064Z",
  "networkType": "ethereum",
  "devdoc": {
    "kind": "dev",
    "methods": {},
    "version": 1
  },
  "userdoc": {
    "kind": "user",
    "methods": {},
    "version": 1
  }
}